{
  "contractName": "Certificates",
  "abi": [
    {
      "inputs": [],
      "payable": false,
      "stateMutability": "nonpayable",
      "type": "constructor"
    },
    {
      "anonymous": false,
      "inputs": [
        {
          "indexed": true,
          "internalType": "uint256",
          "name": "id",
          "type": "uint256"
        },
        {
          "indexed": true,
          "internalType": "address",
          "name": "issuedTo",
          "type": "address"
        },
        {
          "indexed": false,
          "internalType": "address",
          "name": "issuer",
          "type": "address"
        },
        {
          "indexed": false,
          "internalType": "string",
          "name": "ipfsHash",
          "type": "string"
        },
        {
          "indexed": false,
          "internalType": "uint256",
          "name": "issueDate",
          "type": "uint256"
        }
      ],
      "name": "CertificateIssued",
      "type": "event"
    },
    {
      "constant": true,
      "inputs": [],
      "name": "totalCertificates",
      "outputs": [
        {
          "internalType": "uint256",
          "name": "",
          "type": "uint256"
        }
      ],
      "payable": false,
      "stateMutability": "view",
      "type": "function"
    },
    {
      "constant": false,
      "inputs": [
        {
          "internalType": "address",
          "name": "_to",
          "type": "address"
        },
        {
          "internalType": "string",
          "name": "_ipfsHash",
          "type": "string"
        }
      ],
      "name": "issueCertificate",
      "outputs": [],
      "payable": false,
      "stateMutability": "nonpayable",
      "type": "function"
    },
    {
      "constant": true,
      "inputs": [
        {
          "internalType": "uint256",
          "name": "_certId",
          "type": "uint256"
        }
      ],
      "name": "getCertificate",
      "outputs": [
        {
          "internalType": "address",
          "name": "issuedTo",
          "type": "address"
        },
        {
          "internalType": "address",
          "name": "issuer",
          "type": "address"
        },
        {
          "internalType": "string",
          "name": "ipfsHash",
          "type": "string"
        },
        {
          "internalType": "uint256",
          "name": "issueDate",
          "type": "uint256"
        }
      ],
      "payable": false,
      "stateMutability": "view",
      "type": "function"
    }
  ],
  "bytecode": "0x608060405234801561001057600080fd5b5060006001819055506106f3806100286000396000f3fe608060405234801561001057600080fd5b50600436106100415760003560e01c806351640fee14610046578063596b772f1461015a578063bb721aab14610178575b600080fd5b6100726004803603602081101561005c57600080fd5b8101908080359060200190929190505050610253565b604051808573ffffffffffffffffffffffffffffffffffffffff1673ffffffffffffffffffffffffffffffffffffffff1681526020018473ffffffffffffffffffffffffffffffffffffffff1673ffffffffffffffffffffffffffffffffffffffff16815260200180602001838152602001828103825284818151815260200191508051906020019080838360005b8381101561011c578082015181840152602081019050610101565b50505050905090810190601f1680156101495780820380516001836020036101000a031916815260200191505b509550505050505060405180910390f35b6101626103f2565b6040518082815260200191505060405180910390f35b6102516004803603604081101561018e57600080fd5b81019080803573ffffffffffffffffffffffffffffffffffffffff169060200190929190803590602001906401000000008111156101cb57600080fd5b8201836020820111156101dd57600080fd5b803590602001918460018302840111640100000000831117156101ff57600080fd5b91908080601f016020809104026020016040519081016040528093929190818152602001838380828437600081840152601f19601f8201169050808301925050505050505091929192905050506103f8565b005b60008060606000808511801561026b57506001548511155b6102dd576040517f08c379a000000000000000000000000000000000000000000000000000000000815260040180806020018281038252601a8152602001807f436572746966696361746520646f6573206e6f7420657869737400000000000081525060200191505060405180910390fd5b600080600087815260200190815260200160002090508060000160009054906101000a900473ffffffffffffffffffffffffffffffffffffffff168160010160009054906101000a900473ffffffffffffffffffffffffffffffffffffffff16826002018360030154818054600181600116156101000203166002900480601f0160208091040260200160405190810160405280929190818152602001828054600181600116156101000203166002900480156103db5780601f106103b0576101008083540402835291602001916103db565b820191906000526020600020905b8154815290600101906020018083116103be57829003601f168201915b505050505091509450945094509450509193509193565b60015481565b60016000815480929190600101919050555060405180608001604052808373ffffffffffffffffffffffffffffffffffffffff1681526020013373ffffffffffffffffffffffffffffffffffffffff16815260200182815260200142815250600080600154815260200190815260200160002060008201518160000160006101000a81548173ffffffffffffffffffffffffffffffffffffffff021916908373ffffffffffffffffffffffffffffffffffffffff16021790555060208201518160010160006101000a81548173ffffffffffffffffffffffffffffffffffffffff021916908373ffffffffffffffffffffffffffffffffffffffff1602179055506040820151816002019080519060200190610515929190610619565b50606082015181600301559050508173ffffffffffffffffffffffffffffffffffffffff166001547ff677e82fac9d852bc5fc4e5f1c53e0d88e4c55767af3a60dcb0e1accb716ea6b338442604051808473ffffffffffffffffffffffffffffffffffffffff1673ffffffffffffffffffffffffffffffffffffffff16815260200180602001838152602001828103825284818151815260200191508051906020019080838360005b838110156105d95780820151818401526020810190506105be565b50505050905090810190601f1680156106065780820380516001836020036101000a031916815260200191505b5094505050505060405180910390a35050565b828054600181600116156101000203166002900490600052602060002090601f016020900481019282601f1061065a57805160ff1916838001178555610688565b82800160010185558215610688579182015b8281111561068757825182559160200191906001019061066c565b5b5090506106959190610699565b5090565b6106bb91905b808211156106b757600081600090555060010161069f565b5090565b9056fea265627a7a7231582067335759f20b35a576a4d65f012a776e91a7bcc36096fcf1c6e38603c819a8ab64736f6c63430005100032",
  "source": "// SPDX-License-Identifier: MIT\r\npragma solidity ^0.5.16;\r\n\r\ncontract Certificates {\r\n    struct Certificate {\r\n        address issuedTo;\r\n        address issuer;\r\n        string ipfsHash;\r\n        uint256 issueDate;\r\n    }\r\n\r\n    mapping(uint256 => Certificate) private certificates;\r\n    uint256 public totalCertificates;\r\n\r\n    event CertificateIssued(\r\n        uint256 indexed id,\r\n        address indexed issuedTo,\r\n        address issuer,\r\n        string ipfsHash,\r\n        uint256 issueDate\r\n    );\r\n\r\n    constructor() public {\r\n        totalCertificates = 0;\r\n    }\r\n\r\n    function issueCertificate(address _to, string memory _ipfsHash) public {\r\n        totalCertificates++;\r\n        certificates[totalCertificates] = Certificate(_to, msg.sender, _ipfsHash, block.timestamp);\r\n        emit CertificateIssued(totalCertificates, _to, msg.sender, _ipfsHash, block.timestamp);\r\n    }\r\n\r\n    function getCertificate(uint256 _certId) public view returns (\r\n        address issuedTo,\r\n        address issuer,\r\n        string memory ipfsHash,\r\n        uint256 issueDate\r\n    ) {\r\n        require(_certId > 0 && _certId <= totalCertificates, \"Certificate does not exist\");\r\n        Certificate storage cert = certificates[_certId];\r\n        return (cert.issuedTo, cert.issuer, cert.ipfsHash, cert.issueDate);\r\n    }\r\n}\r\n",
  "sourcePath": "D:\\MAI education\\DApplication\\dVerifyCertificateApplication\\contracts\\Certificates.sol",
  "compiler": {
    "name": "solc",
    "version": "0.5.16+commit.9c3226ce.Emscripten.clang"
  },
  "schemaVersion": "3.4.16",
  "updatedAt": "2025-04-03T22:09:23.570Z",
  "networkType": "ethereum",
  "devdoc": {
    "methods": {}
  },
  "userdoc": {
    "methods": {}
  }
}